:020000040800F2
:10000000200E002031020008390200083B020008DF
:100010003D0200083F020008410200080000000005
:100020000000000000000000000000004302000883
:1000300045020008000000004702000849020008CD
:100040004B0200084B0200084B0200084B0200085C
:100050004B0200084B0200084B0200084B0200084C
:100060004B0200084B0200084B0200084B0200083C
:100070004B0200084B0200084B0200084B0200082C
:100080004B0200084B0200084B0200084B0200081C
:100090004B0200084B0200084B0200084B0200080C
:1000A0004B0200084B0200084B0200084B020008FC
:1000B0002D260008012700084B0200084B0200080B
:1000C0004B0200084B0200084B0200084B020008DC
:1000D0004B020008C9280008512900084B020008FB
:1000E0004B0200084B0200084B0200084B020008BC
:1000F0004B0200084B0200084B0200084B020008AC
:100100004B0200084B0200084B0200084B0200089B
:100110004B0200084B0200084B0200084B0200088B
:100120004B0200084B0200084B0200084B0200087B
:1001300000F002F800F06DF80AA090E8000C82448C
:100140008344AAF10107DA4501D100F062F8AFF269
:10015000090EBAE80F0013F0010F18BFFB1A43F0A5
:1001600001031847984E0000B84E00000A444FF0B3
:10017000000C10F8013B13F0070408BF10F8014B06
:100180001D1108BF10F8015B641E05D010F8016B4B
:10019000641E01F8016BF9D113F0080F1EBF10F8AF
:1001A000014BAD1C0C1B09D16D1E58BF01F801CBD2
:1001B000FAD505E014F8016B01F8016B6D1EF9D555
:1001C0009142D6D37047000000230024002500266A
:1001D000103A28BF78C1FBD8520728BF30C148BFAA
:1001E0000B607047662904F01C86642900F08C803F
:1001F000732900F03A84002070471FB500F074FCAA
:1002000004000020002103F045FDE0601FBD10B593
:1002100010BD00F06DFD1146FFF7EFFF03F090FAFF
:1002200000F08BFD03B4FFF7F2FF03BC02F092FD78
:100230000948804709480047FEE7FEE7FEE7FEE77A
:10024000FEE7FEE7FEE7FEE7FEE7FEE704480549B6
:10025000054A064B70470000CD2500083101000813
:1002600020080020200E0020200A0020200A002064
:10027000704700000FB4044910B503AA029800F0BB
:10028000F9FB10BC5DF814FB540000200FB41CB542
:10029000074B06AA7B4469460090059800F0BBFB1B
:1002A0000020694600F0CAFB1CBC5DF814FB00008E
:1002B000A507000070B50C460546012A05D0287830
:1002C000800600D5EA69002302E0012305E05B1CFB
:1002D000934202D2E05C0028F9D1A869E618C01A5E
:1002E000A861286A184428622846AFF3008004E019
:1002F000D5E9012114F8010B9047B442F8D3284600
:10030000AFF3008070BD00002DE9F04106460024E7
:1003100010687529314616A510D0AFF3008000286B
:1003200002DA404213A507E031688A0701D512A519
:1003300002E0490704D511A5012401E0AFF30080D4
:1003400000210A2206F1240709E0B0FBF2FCB0FB11
:10035000F2F302FB1C00303078541846491C002888
:10036000F3D123462A463046BDE8F04100F0E7B815
:10037000000000002D0000002B0000002000000005
:100380002DE9F05F894604464FF0000ADFF824B1FA
:10039000FB44C0F820A02046E168884700287DD0B3
:1003A000252806D0D4E901219047206A401C20620C
:1003B000F1E700255F462046E16888472028064689
:1003C00007DB312E05D2B81910F8200C08B105430F
:1003D000F1E7A80701D525F00405C4F81CA0002703
:1003E000C4F818A02A2E09D0304602F0ACFC38B36D
:1003F00004EB8708303EC8F8186019E059F8041B70
:10040000204604EB87029161E1688847012F064688
:1004100018D1E069002820DA25F020051DE0D8F881
:10042000180000EB800006EB40003038C8F81800D8
:100430002046E1688847064602F085FC0028EED198
:10044000012F0AD02E2E08D12046E16888477F1C54
:100450000646022F45F02005C4DBA069002803DA18
:10046000404245F00105A061E80701D025F01005E4
:10047000A6B1A6F14100192802D8203645F400653E
:100480004A463146204625604D46FFF7ABFE60B137
:10049000012807D0ED1D25F0070000E007E000F17E
:1004A000080978E705F1040975E730467AE7206A1C
:1004B000BDE8F09F824B000030B505460B462A464A
:1004C00013F8014B12F8010B08B1A042F8D01CB18F
:1004D000002802D06D1CF1E7284630BD4FF0000225
:1004E0000429C0F0128010F0030C00F0D782CCF188
:1004F000040CBCF1020F18BF00F8012BA8BF20F8B4
:10050000022BA1EB0C0100F0C9BA5FEAC17C24BF49
:1005100000F8012B00F8012B48BF00F8012B7047B1
:10052000704770477047704710B500F0E1FA0068F7
:1005300010BD10B5044600F0DBFA046010BD2DE9D3
:10054000F0470D4699469246044600F1240801689A
:10055000880604D5E06921F01001216000E0012047
:10056000A84201DD471B00E00027A1697A1902EBD0
:100570000900081AA0612078C00602D42046AFF313
:100580000080002608E0D4E901211AF8060090470F
:10059000206A401C761C20624E45F4DB2078C006A1
:1005A0000AD52046AFF3008006E0D4E901213020CF
:1005B0009047206A401C2062381EA7F10107F4DC36
:1005C00007E0D4E9012118F805009047206A401C93
:1005D0002062281EA5F10105F3DC2046AFF3008060
:1005E0002078000602D50220BDE8F0870120FBE755
:1005F00070472DE9FF4F0C461E464FF0FF378BB07A
:10060000D2E90001DDF860800A908A46C1F30A55FC
:1006100005B93D46002108464FF00000BAF1000F31
:1006200000F4400005DA00EB80004FF4400101EADD
:1006300050004FEA9059B9F1010F00DDB9460A9810
:1006400050EA4A000ED044F61050A5F2FF3545435B
:100650002F14B8F1000F1ED07542291E1EDDC9F1FE
:1006600000021CE0B8F1010F4FF0000001D0302172
:1006700003E0F24305E02154401CB042FBDB30466E
:100680000022002121540B99C1F80880C1E9002003
:100690000FB0BDE8F08FBD1B6D1CDEE74A4600DAE7
:1006A000694206A800F0AEFA06AB93E8070003AB78
:1006B00083E8070050460A9900F086FB8DE80700A2
:1006C000A0F500501F3800900398002D09DD42F27C
:1006D0001F014A46084403A90390684600F0E5FD5F
:1006E00008E0A0F500504A461F3803A90390684669
:1006F00000F0EFFD8DE807000004000C03D04FF080
:10070000FF30410800E01046B8F1000F03D000228E
:10071000009215461EE0751E05D400F0EDF930324A
:1007200062556D1EF9D5B3460122084302D000225E
:100730007F1C04E02078302801D100227F1E002A8F
:10074000099786D01DE0112D07DA00F0D5F9303277
:1007500062556D1C50EA0102F5D1084302D00098A1
:10076000C8B10EE00021681E05E0235C625C6354A2
:100770002254401E491C8142F7DBAB46A81B401E99
:100780000990002004F80B000B98099AC0F8088023
:10079000C0E9002B7CE711264FF0000859E72DE94E
:1007A000F04F88460446D21D22F0070191B0D1E9EE
:1007B0000001CDE90A0102F04BFA02460B98C00F86
:1007C00001D02D2007E02068810701D52B2002E011
:1007D000202101EAC000032A099001D0072A05DB85
:1007E00003464146204600F0CDF90BE12078800613
:1007F00001D5E06900E00620B8F1650F814606D01A
:10080000B8F1660F18D0B8F1670F70D131E0002051
:10081000B9F1110F009001DB112301E009F101038F
:100820000AAA01A90CA8FFF7E4FEDDE90C70002676
:1008300009F10105834647E001204B4600904FF047
:1008400000470AAA01A90CA8FFF7D3FEDDE90DB005
:100850000C995D46002610B909F101000D18B9EB9D
:10086000050003D4C0F1FF3609F10105A5EB09002D
:100870002BE0B9F1010F01DA4FF001090020B9F1C5
:10088000110F0090484601DD112300E003460AAA3B
:1008900001A90CA8FFF7ADFEDDE90C704D4600265E
:1008A0008346207800070AD4AB4500DA5D4601A8EC
:1008B000012D04DD411911F8011C302907D04F45E5
:1008C00002DA17F1040F04DA012082460FE06D1EF0
:1008D000EEE7002F02DCED1B3E4403E0781CA8424B
:1008E00000DD7D1CB81B00F1010A4FF000472078A5
:1008F000000703D4AA4501DB4FF0FF3A0021B7F10E
:10090000004F0DF143088DF8431024D002202B2313
:10091000002F01DA7F422D230A21021EA0F10100DF
:1009200000DC5FB197FBF1FC97FBF1F201FB1C7C53
:1009300017460CF1300C08F801CDEEE7A8F10100E4
:1009400003702188090501D5452100E06521A0F14A
:10095000010800F8011C09980FA9A1EB0807FF1D69
:1009600000B10120411901EBEA70A1693844081A6D
:10097000401EA0612078C00602D42046AFF300805C
:10098000099828B1D4E901219047206A401C2062CF
:100990002078C00622D52046AFF300801EE0002E4E
:1009A00004DBB34502DD01A8805D00E03020D4E91E
:1009B00001219047206A401C2062761CAAF10100A8
:1009C0005FEA000A0AD100F08FF8C0680168405C55
:1009D000D4E901219047206A401C2062281EA5F11D
:1009E0000105DCDC07E0D4E9012118F8010B904790
:1009F000206A401C2062381EA7F10107F3DC204664
:100A0000AFF30080032011B043E6000001694A1CE7
:100A100002610878704700B58FB0CDE9013100213F
:100A2000059105497944CDE9031011466846FFF761
:100A3000A7FC0FB000BD0000E5FFFFFF0A6802F849
:100A4000010B0A60704710B5436913B1AFF3008022
:100A500001E0FFF72FFC012010BD127800F1240106
:100A60000A7000224A700122EDE711684FF0FF3250
:100A7000E9E70000074B70B50D467B44FFF7CBFF5D
:100A80000446284600F02CF910B14FF0FF3070BD3D
:100A9000204670BD8F2800004FF0000200B51346BD
:100AA00094469646203922BFA0E80C50A0E80C508E
:100AB000B1F12001BFF4F7AF090728BFA0E80C503F
:100AC00048BF0CC05DF804EB890028BF40F8042B38
:100AD00008BF704748BF20F8022B11F0804F18BFA5
:100AE00000F8012B7047000000487047DC07002029
:100AF00000487047BC07002030B5B0F10A024FEA49
:100B0000900E71F100034EEA817EB0EB0E0061EBB6
:100B100091014FEA101E4EEA017E10EB0E0041EBF0
:100B200011114FEA102E4EEA016E10EB0E0041EB50
:100B300011214FEA104E4EEA014E10EB0E0041EB30
:100B40001141401841F100014FEAD00040EA4170E4
:100B50004FEAD10110EB80054FEA810444EA90741A
:100B600044EB01046D1944EB0404521BA3414FF004
:100B7000000348BF0A3200D530BD401C41F10001DE
:100B800030BD00002DE9F0411F46044603260168F0
:100B9000072A01F4006004DB08B116A505E016A5DC
:100BA00003E008B115A500E015A521F010002060B4
:100BB000A069C01EA0610FB1401EA0612046AFF326
:100BC00000804FB1D4E9012138469047206A401C8B
:100BD0002062C01C206206E0206AFAE7D4E9012105
:100BE00015F8010B9047761EF8D22046AFF300802F
:100BF000BDE8F0814E414E006E616E00494E4600E8
:100C0000696E66002DE9F047814616468AB0334882
:100C100078440DC88DE80D0030487844801C03AC42
:100C20000DC884E80D0041F69B300844372190FB45
:100C3000F1F290FBF1F5A5F1800501FB12041B3CDC
:100C400002D56442012000E00020DFF890A0804639
:100C50000027FA44AAF1BE0A0DE0E00709D03246A7
:100C6000684607EB47010AEB810100F032FB8DE893
:100C7000070064107F1C002CEFD1184F7F44AC3F5D
:100C800018E0E80714D007EB04100DF1180A90E8FB
:100C90000E008AE80E00C068F04201D19819089051
:100CA000324606A903A800F014FB03AB83E8070053
:100CB0006D10641C002DE4D132466946B8F1000F76
:100CC00003A802D000F0F1FA01E000F002FBC9E94C
:100CD0000001C9F808200AB0BDE8F087D043000041
:100CE000007B00F08000704700487047BC07002080
:100CF0007546FFF7F9FFAE4605006946534620F0FA
:100D00000700854618B020B5FFF7A0FABDE82040DF
:100D10004FF000064FF000074FF000084FF0000BB7
:100D200021F00701AC46ACE8C009ACE8C009ACE86A
:100D3000C009ACE8C0098D4670470446AFF3008097
:100D40002046FFF76FFA00004FF0013C50F8042BEB
:100D500051F8043B9A4221D1A2EB0C03934313EACE
:100D6000CC1317D150F8042B51F8043B9A4215D1FB
:100D7000A2EB0C03934313EACC130BD150F8042BD2
:100D800051F8043B9A4209D1A2EB0C03934313EAB6
:100D9000CC13DBD04FF00000704700BFD01A01BA6F
:100DA000B1FA81F101F0180122FA01F0CB40C1F152
:100DB0002001DBB2C0B2C01A2CFA01F3D11A914360
:100DC00011EAC311E6D170475FEA400C08BF91F009
:100DD000000F4FEA8C234FEAC12243EA51514FEAF8
:100DE0001C5018BF00F5F0404FEA300018BF41F02A
:100DF00000415FEA6C5C00F02980BCF1FF3F08BF56
:100E000040F080407047130C06BF12044FF0100CE6
:100E10004FF0000C130E04BF12020CF1080C130F5C
:100E200004BF12010CF1040C930F04BF92000CF1EB
:100E3000020CD30F04BF52000CF1010C11464FF00D
:100E40000002A0F11F00A0EB0C00704711F0004F52
:100E500008BF704731F000413FF4D5AF0B0C06BF1F
:100E600009044FF0100C4FF0000C0B0E04BF0902E8
:100E70000CF1080C0B0F04BF09010CF1040C8B0FD3
:100E800004BF89000CF1020CCB0F04BF49000CF128
:100E9000010CCCF12003A0EB0C0022FA03F302FAC0
:100EA0000CF241EA030100F10100704720F07F4C91
:100EB00080EA030023F07F47ACEB070303F57C5384
:100EC00000F0004003F1FF032DE980494FEA154B84
:100ED00009B44FEA144325EA0B4E24EA03480FF203
:100EE000042606EB132749083E785FEA320203FB2B
:100EF0000667C7F5000707FB06F64FEA54374FEAC7
:100F0000D64606F1020607FB066CCCF1005C4FEA00
:100F10001C472CEA074C07FB06F40CFB06F504EB18
:100F200015464FEA961634BF00204FF000404FEAB6
:100F3000D13706FB07FC4FEA1C4C0CFB0BF7D21B0E
:100F400003FB0CF761EB07010CFB0EF7B0EB07405E
:100F500072EB17420CFB08F734BFA2EB0742B2EB6F
:100F6000074261EB17414FEA0C444FEA910706FB39
:100F700007FC4FEA1C4C0CFB0BF7B0EBC74072EBC5
:100F8000573203FB0CF734BFA2EBC742B2EBC742A8
:100F900061EB57310CFB0EF7B0EBC70072EB5772E9
:100FA0000CFB08F734BFA2EBC702B2EBC70261EB40
:100FB0005771039F4FEA816141EA921104EBCC041F
:100FC0004FEAD1374FEA826206FB07FC42EA9012F1
:100FD0004FEA80604FEA1C4C0CFB0BF7D21B03FB63
:100FE0000CF761EB07010CFB0EF7B0EB074072EB5F
:100FF00017420CFB08F734BFA2EB0742B2EB0742E3
:1010000061EB17414FEA8C554FEA910704EB9C24A2
:1010100006FB07FC4FEA1C4C0CFB0BF7B0EBC74080
:1010200072EB573203FB0CF734BFA2EBC742B2EBB3
:10103000C74261EB57310CFB0EF7B0EBC70072EB08
:1010400057720CFB08F734BFA2EBC702B2EBC70222
:1010500061EB577115EB4C254FEA816141EA921122
:101060004FEA82624FEAD13742EA901206FB07FC50
:1010700044F100044FEA80604FEA1C4C0CFB0BF774
:10108000D21B03FB0CF761EB07010CFB0EF7B0EB77
:10109000074072EB17420CFB08F734BFA2EB074284
:1010A000B2EB074261EB174115EB1C154FEA81319A
:1010B00041EA92414FEA823242EA90424FEA80305E
:1010C0004FEA0C7644F1000448EA03434EEA0B4829
:1010D0004FF0000EB2EB080C71EB030724BF624621
:1010E00039464EEB0E0E4FF0000B001852414941AD
:1010F0004BEB0B0BB2EB080C71EB03077BF1000B16
:1011000024BF624639464EEB0E0E4FF0000B00181E
:10111000524149414BEB0B0BB2EB080C71EB03074F
:101120007BF1000B24BF624639464EEB0E0E51EAAE
:10113000020718BF46F0010616EB0E7655F10002C5
:1011400054F1000103D5BDE88901BDE80088BDE880
:101150008901BDE80048B619524141EB0101A3F1F4
:101160000103704780807F7E7D7C7B7A79787776FB
:1011700076757473727171706F6E6E6D6C6C6B6A74
:101180006A69686867666665646463636261616012
:10119000605F5F5E5E5D5D5C5C5B5B5A5A5959588F
:1011A00058575756565555555454535352525251F9
:1011B000515050504F4F4F4E4E4D4D4D4C4C4C4B4F
:1011C0004B4B4A4A4A494949484848474747474696
:1011D00046464545454444444443434343424242D2
:1011E00042414141002B26D4770021D01CB54FEA63
:1011F000370703B44FF010004FF010014FF000001C
:101200000FBCBDE810400BF1010BBBF1010F08BF93
:101210005FEA170722BF12F1010211F101014FF03D
:10122000004143F1000300F0004043EA0000704732
:10123000F9D35708DAE746EA064613F1400F4FEABA
:1012400016461FDD13F1200FDFBF16430A460021AB
:1012500020335B42C8D0C3F1200746EA064602FAB3
:1012600007F74FEA164646EA0706C3F1200722FAB7
:1012700003F201FA07F721FA03F14FF0000342EA03
:101280000702B1E746EA020646EA06464FEA164674
:1012900046EA0106BCBF46EA0646360C4FF000039C
:1012A0004FF000024FF000019EE72DE9C048934641
:1012B00030B491E8380007C831EA400C48BF34EA3E
:1012C000430C03D5FFF7F2FDFFF78CFFF0BCBDE840
:1012D00000882DE9C048934630B491E8380007C82B
:1012E00010F0804F08BF13F0804F03D100F005F8D5
:1012F000FFF778FFF0BCBDE8008820F07F4780EA68
:10130000030023F07F4C07EB0C03A3F57C5300F0A4
:101310000040A3F1FE0392F0000F00F0B38095F0BF
:10132000000F00F077802DE901494FEA11404FEAA4
:10133000144621EA004800FB06FC24EA064708FBA5
:1013400006F607FB08F800FB07F718EB06484CEB1E
:10135000164C4FEA124B18EB07484FEA15464CEB78
:10136000174022EA0B4E0BFB06FC25EA06470EFB54
:1013700006F607FB0EFE0BFB07F71EEB064E4CEBCB
:10138000164C4FF000061EEB074E4CEB174B18EBBC
:101390000B0840F1000018EB0E0B58EB000840F171
:1013A00000008F1A4FF000013CBFC943661B14BFF9
:1013B000B5EB040C00213CBFC943F61B4FEA1744B0
:1013C0004EEA8E0E27EA04454FEA1C4704FB0762EB
:1013D0002CEA074C05FB07F70CFB05F604FB0CFC9D
:1013E00016EB074642EB174216EB0C4642EB1C424B
:1013F0001BEB060658EB0202414146EA9E0601D568
:10140000BDE80189B619524141EB0101A3F1010385
:10141000BDE801894FEA14454FEA114724EA054621
:1014200021EA074C05FB07F406FB07F70CFB06F166
:1014300005FB0CFC11EB074144EB17444FEA124744
:1014400011EB0C4144EB1C4422EA074C05FB07F26C
:1014500006FB07F70CFB06F605FB0CFC16EB074634
:1014600042EB174216EB0C4642EB1C456A1854F14E
:10147000000148BF7047B619524141EB0101A3F189
:101480000103704795F0000F37D04FEA11424FEA41
:10149000144721EA024624EA074C02FB07F106FB47
:1014A00007F70CFB06F402FB0CFC14EB074441EBC2
:1014B00017414FEA154714EB0C4441EB1C4125EA58
:1014C000074C02FB07F506FB07F70CFB06F602FBD1
:1014D0000CFC16EB074645EB174516EB0C4645EBA7
:1014E0001C42121951F1000148BF7047B619524110
:1014F00041EB0101A3F1010370474FEA14454FEAA4
:10150000114724EA054621EA074C05FB07F106FBD3
:1015100007F70CFB06F24FF0000605FB0CFC12EB84
:10152000074241EB174112EB0C4251EB1C4148BF03
:101530007047921841EB0101A3F1010370470000CD
:101540000020064908700648064908600020064940
:10155000086006490860064908607047C802002014
:101560000000A041CC020020D0020020D4020020C4
:10157000D802002070B506460C46154600F0A6FAC3
:10158000AE2000F075FA00F0E9FA18B100F0C2FAE6
:10159000012070BD304600F06BFA00F0DFFA00F079
:1015A00095FAAF2000F064FA00F0D8FA0DE0012DB2
:1015B00004D1002000F026FA207003E0012000F0A2
:1015C00021FA2070681EC5B2641C002DEFD100F016
:1015D000A1FA0020DDE708600023136070470000D7
:1015E00000BF0549098801F040010029F9D00249EE
:1015F000091D0880704700000038014070B506469C
:101600000D460320FFF7ECFFFC20FFF7E9FF304613
:1016100003F0F8F904B2E0B2FFF7E2FFC4F30720E9
:10162000FFF7DEFF284603F0EDF904B2E0B2FFF762
:10163000D7FFC4F30720FFF7D3FFFC20FFF7D0FF4D
:101640000320FFF7CDFF70BD2DE9F14F134840682F
:1016500012490860086803F045F80646104A114B25
:1016600002F016FE04460D46009803F03BF80646CD
:101670000D4A0E4B02F00CFE804622462B4602F02D
:1016800051FB824602F01CFB044948600A4651683F
:10169000106803F053F8BDE8F88F0000DC0200206A
:1016A0005CDDC150084EE03F48457C5EEF63CF3FB4
:1016B0002DE9F041024600250026002000230024E9
:1016C000002791F803C00CF00F0591F803C00CF04F
:1016D000100CBCF1000F03D091F802C04CEA0505D4
:1016E00091F800C0BCF1000F31D0146800202BE04D
:1016F0004FF0010C0CFA00F3B1F800C00CEA03063D
:101700009E4220D183004FF00F0C0CFA03F7BC432C
:1017100005FA03FC4CEA040491F803C0BCF1280F5D
:1017200006D14FF0010C0CFA00FCC2F814C00AE01C
:1017300091F803C0BCF1480F05D14FF0010C0CFA31
:1017400000FCC2F810C0401C0828D1D31460B1F8C6
:1017500000C0BCF1FF0F34DD546800202EE000F122
:10176000080C4FF0010808FA0CF3B1F800C00CEABD
:1017700003069E4221D183004FF00F0C0CFA03F7B1
:10178000BC4305FA03FC4CEA040491F803C0BCF125
:10179000280F05D100F1080C08FA0CF8C2F81480E3
:1017A00091F803C0BCF1480F07D100F1080C4FF0CD
:1017B000010808FA0CF8C2F81080401C0828CED3A3
:1017C0005460BDE8F0810246002093680B400BB1E5
:1017D000012000E0002070470161704700B5002043
:1017E0000E4908600E48006820F470400C490860FB
:1017F0000846006840F44050086000200949C1F8DC
:10180000AC0100F011F801200449086000F00CF868
:1018100000200449C1F8B00100BD0000B001214220
:1018200004080140000021425A2000E000BF0100EE
:10183000A0F10102D0B2F9D17047000008B5012132
:10184000042000F091FC4FF4C050ADF800001420CB
:101850008DF8030003208DF8020069460448FFF765
:1018600027FF0120034908600349C1F8AC0108BD06
:1018700000080140B00121420000214200B50020D3
:101880000E4908600E48006820F470400C4908605A
:101890000846006840F44050086001200949C1F83A
:1018A000AC01FFF7C1FF012004490860FFF7BCFF4E
:1018B00000200449C1F8B00100BD0000B001214280
:1018C000040801400000214208B50121082000F071
:1018D0004BFCC020ADF8000003208DF80200102062
:1018E0008DF8030069460248FFF7E2FE08BD0000DC
:1018F000000C014010B500F0EBFC01200A49086023
:101900000A49C1F89801022001F0B8FC00200649FC
:101910000860022001F0B2FC00200449C1F89801DF
:10192000022001F0ABFC10BD9C81214200802142CD
:1019300010B501200849086000200849C1F89C0141
:10194000022001F09BFC01200349091D08600220D0
:1019500001F094FC10BD00009881214200802142DA
:1019600010B5002400F0A2FC01200D4908600220FF
:1019700001F084FC06E0641CFA2C03DDFFF7D8FFBD
:10198000012010BD80210748FFF71DFF0028F2D17C
:1019900003490860022001F071FC0020F1E700001B
:1019A00098812142000C014070B5044600F090FC83
:1019B00000251FE0002011490860022001F05EFCB4
:1019C00004F0800020B101200C49091D086003E0EB
:1019D00000200A49091D086001200849086002200A
:1019E00001F04CFC00200649C1F898016006040E85
:1019F000681CC5B2082DDDDB70BD00009881214256
:101A00000080214230B5044600231648006820F4C7
:101A10007040144908600846006840F400400860BF
:101A2000002514E0002010490860FFF7FDFE0120AA
:101A30000E49C1F8B0015806030E0B4884380068FF
:101A400008B1581CC3B2FFF7EFFE681CC5B2082DE1
:101A5000E8DB14B9FFF712FF01E0FFF7BFFE1846FD
:101A600030BD000004080140B001214200002142C5
:101A700010B503461248006820F470401049086011
:101A80000846006840F44050086000200D49086096
:101A9000002412E0D8090B49091F08605806030EFC
:101AA00001200949C1F8B001FFF7BEFE0020054939
:101AB0000860FFF7B9FE601CC4B2082CEADB10BD59
:101AC00004080140B00121420000214200B50E4847
:101AD000006820F470400C4908600846006840F433
:101AE000405008600120094908600949C1F8B00167
:101AF000FFF79AFE002005490860FFF795FE0020D9
:101B00000349C1F8B00100BD04080140AC01214205
:101B10000000214200B50E48006820F470400C49D6
:101B200008600846006840F44050086000200949F9
:101B300008600949C1F8AC01FFF776FE01200549AC
:101B400008600549C1F8AC01FFF76EFE00BD00005A
:101B500004080140B00121420000214200B50023E9
:101B60001448006820F47040124908600846006874
:101B700040F40040086001200F490860FFF754FE60
:101B800001200E49C1F8B001FFF74EFE07E0581CD6
:101B9000C3B2FA2B03DDFFF7BDFF012000BD0648ED
:101BA000803800680028F2D10349091D086000BF91
:101BB000F4E7000004080140AC012142000021428A
:101BC00008B50121082000F0CFFA4FF48050ADF89D
:101BD000000003208DF8020010208DF803006946F4
:101BE0000448FFF765FD4FF480510248FFF7F4FD0C
:101BF00008BD0000000C014038B54B494B4800F0CF
:101C0000E5F94B4800684B4908604B4801684B4870
:101C1000006802F093FD4A4908604A480168484854
:101C2000006802F08BFD044621464548006802F03A
:101C3000F3FD454908603D48007802F037FF43490D
:101C400008603C4801684148006803F075F80546A3
:101C50003D480168284602F071FF04463548016896
:101C6000204602F06BFD3A490860374801684FF0A2
:101C70007E5003F061F8044631480168204602F0C6
:101C80005DFF344908603248006802F02BFD0446CD
:101C90002548007822460B4600902FA0FEF7EAFA6E
:101CA0002C480068254908602948006820490860D8
:101CB000142001F0BDFA1D48007832281EDD1B48B3
:101CC00000785A281ADA184800785A2816DD0120B8
:101CD0002849087028480078032823D10020264985
:101CE0000870114803781148027824A12848FEF7AB
:101CF000CDFA2749274800F04FFF13E000201D4987
:101D000008701D4908702448007801280AD1002075
:101D10002149087021A11E48FEF7B8FA1C491D4848
:101D200000F03AFF38BD0000010000200000002054
:101D300010000020240000201800002014000020C3
:101D40002C0000201C000020200000203800002073
:101D500028000020300000200D0AD0C4C2CAA3BA57
:101D600025302E316609D1AAD1F5A3BA25640D0A12
:101D700000000000020000200300002028237875E6
:101D8000655F25645F2378696E5F25645F290000C5
:101D900084030020004400403C0000202823787584
:101DA000655F305F2378696E5F305F290000000057
:101DB00070B5002100230F22C47804B3154C2468A9
:101DC00004F4E064C4F5E064210AC1F10403CA40EC
:101DD000447804FA03F184781440214309010E4C3D
:101DE0000678A155047804F01F050124AC4005785D
:101DF0006D11AD0005F1E025C5F8004109E004785A
:101E000004F01F050124AC40044D0678761145F816
:101E1000264070BD0CED00E000E400E080E100E051
:101E200002490143024A1160704700000000FA05B0
:101E30000CED00E010B5002000F001F810BD70B509
:101E40000646002415E004F1B001C8B200F0B2FE6D
:101E5000002000F0AFFE102000F0ACFE002504E0F2
:101E6000304600F0BDFE681CC5B2802DF8DB601C5A
:101E7000C4B2082CE7DB70BD10B5642001F0D8F9BE
:101E8000AE2000F097FE202000F094FE102000F01D
:101E900091FEB02000F08EFEC82000F08BFE0020E6
:101EA00000F088FE102000F085FE402000F082FE49
:101EB000812000F07FFEFF2000F07CFEA12000F0DA
:101EC00079FEA62000F076FEA82000F073FE3F20E9
:101ED00000F070FEA42000F06DFED32000F06AFE3A
:101EE000002000F067FED52000F064FEF02000F036
:101EF00061FED92000F05EFE222000F05BFEDA20B9
:101F000000F058FE122000F055FEDB2000F052FEDB
:101F1000202000F04FFE8D2000F04CFE142000F039
:101F200049FEAF2000F046FE10BD10B58D2000F038
:101F300041FE142000F03EFEAF2000F03BFE10BD3D
:101F400070B504460D4605F1B001C8B200F032FE8E
:101F5000102141EA141000F02DFE04F00F0141F0B1
:101F6000010000F027FE70BD2DE9F04180460E46CD
:101F70001546002731464046FFF7E2FF002409E0FE
:101F8000114A02EB8511085D00F02AFE781CC7B2E9
:101F9000601CC4B2102CF3DB701CC1B24046FFF7CA
:101FA000CFFF00240BE06900491C074A02EB4111F6
:101FB000085D00F015FE781CC7B2601CC4B2102C7E
:101FC000F1DBBDE8F0810000E10000202DE9FC5FBD
:101FD00004460D4600202070287001F0D7FC3F49D0
:101FE0000968A0EB010A504602F003F900223C4BBD
:101FF000CDE9000102F04AFA6DD201F0C7FC374981
:10200000086001F043FE3748008802F04FFD824629
:10201000354A111F01F099FD07463448008802F047
:1020200045FD8246324A111F01F08FFD814687F03F
:10203000004A5046FFF708FB8046404600F08DFE00
:10204000064601F071F98246002102F043FE11D2EA
:1020500002202849087032464946384600F096F971
:1020600001F062F9824602F0E9FC207001F07AF991
:10207000287008E01F480078022804D101201D497B
:10208000087001F0E1FC1C480078012804D0022807
:1020900010D0032814D112E01448008802F006FD85
:1020A00082461048008802F001FD83465146FFF742
:1020B000A5FA06E049463846FFF7A0FA01E000E03D
:1020C00000BF00BF3EB100210C48006802F066FC72
:1020D00001D001F09BFCBDE8FC9F0000F402002051
:1020E00000002440C202002008030020C402002097
:1020F00010030020E8020020E9020020E402002092
:10210000002009490870094908600949086009491F
:1021100008600949086009490860082008490870F2
:102120000020084908607047E8020020EC02002007
:10213000F0020020F4020020F8020020FC0200203F
:1021400000030020E402002029B1064AD2690243BC
:10215000044BDA6104E0034AD2698243014BDA613D
:10216000704700000010024029B1064A92690243FC
:10217000044B9A6104E0034A92698243014B9A61DD
:10218000704700000010024030B5002100220024FA
:1021900000232D4D6D6805F00C0121B1042905D0F7
:1021A000082923D105E0294D056022E0274D05606F
:1021B0001FE0254D6D6805F47012234D6D6805F420
:1021C0008034022505EB92421CB9214D5543056030
:1021D0000BE01D4D6D6805F400351DB11C4D5543D8
:1021E000056002E0194D5543056002E0174D05609A
:1021F00000BF00BF144D6D6805F0F0010909154DD1
:102200006B5C0568DD4045600F4D6D6805F4E0616D
:10221000090A104D6B5C4568DD4085600A4D6D68AC
:1022200005F46051C90A0B4D6B5C4568DD40C56023
:10223000054D6D6805F44041890B074D6B5CC56821
:10224000B5FBF3F5056130BD0010024000127A00C5
:1022500000093D00700300208003002070B5044693
:10226000FFF734FCAE20FFF703FCFFF777FC00B16B
:1022700017E02046FFF7FCFBFFF770FC00B110E011
:10228000FFF724FCAF20FFF7F3FBFFF767FC00B17B
:1022900007E00020FFF7B6FB0546FFF73BFC2846AA
:1022A00070BDFFF737FC0020FAE7000008B580207A
:1022B000ADF8000003208DF8020048208DF80300DF
:1022C00069460248FFF7F4F908BD0000000C014020
:1022D00008B58020ADF8000003208DF80200102022
:1022E0008DF8030069460248FFF7E2F908BD0000D7
:1022F000000C014010B5FF20FFF7B0FF1C4908702B
:10230000084601781BA0FDF7B5FF19480078112891
:102310002CD1642000F08CFF0821062000F076FC10
:102320001620FFF79BFF164908701720FFF796FF4E
:10233000144908704FF4967000F07AFF032001F002
:10234000E8FB032001F0D7FB012001F0EFFB0721A0
:10235000084601F0C6FB012001F0B0FBFFF7F0F8E2
:10236000094801F0DDFB032000F0FEFC10BD000079
:10237000140300206964203D2025640D0A0000003C
:102380001503002016030020E40200202DE9F04F81
:102390008BB00446894692462146204602F0CEFB89
:1023A00005463D480168284602F0C8F93A490860E8
:1023B0004946484602F0C2FB0546384801682846AF
:1023C00002F0BCF93549086035480068401C3449C2
:1023D0000860BAF1000F5BD032480078401C3149E8
:1023E000087008460078032852D12D48006802F092
:1023F0005DFB804641462848006802F00DFA07461A
:1024000002F070F9054600F0EDFFCDE90401244823
:10241000006802F04BFB014601902048006802F082
:10242000FBF9834602F05EF9074600F0DBFF054644
:1024300000221D4B01F02CFFCDE90201DDE9042350
:1024400001F02CFDCDE9060101F03AFC09900020D5
:1024500008901649099802F03DFC06D2099802F04E
:10246000EDFA4238C0B208900AE01149099802F02A
:1024700031FC05D2099802F0E1FA3238C0B2089076
:1024800001F0E2FA0B490898085C0B49087000BF9C
:102490000BB0BDE8F08F000044030020480300208B
:1024A000500300204C0300200000594000008442EB
:1024B00000004842180300205403002010B500F02B
:1024C00001F810BD0CB50020019000903348006861
:1024D00040F480303149086000BF3048006800F4A3
:1024E000003000900198401C0190009818B90198A4
:1024F000B0F5A06FF1D12948006800F4003010B1A8
:102500000120009001E0002000900098012843D1B4
:102510002348006840F01000214908600846006820
:1025200020F0030008600846006840F002000860E0
:102530001A4840681949486008464068486008469B
:10254000406840F4806048600846406820F47C1091
:1025500048600846406840F4E81048600846006853
:1025600040F08070086000BF0C48006800F0007008
:102570000028F9D00948406820F003000749486066
:102580000846406840F00200486000BF03484068C9
:1025900000F00C000828F9D10CBD0000001002402A
:1025A00000200240042808D14FF0E021096941F0E1
:1025B00004014FF0E022116107E04FF0E0210969CA
:1025C00021F004014FF0E0221161704710B513486B
:1025D000006840F001001149086008464068104951
:1025E00008400E494860084600680E4908400B49FB
:1025F00008600846006820F48020086008464068AB
:1026000020F4FE0048604FF41F008860FFF756FF7B
:102610004FF000600449086010BD00000010024047
:102620000000FFF8FFFFF6FE08ED00E010B5012105
:10263000880700F0B8F8A0B10121880700F0A4F8DD
:1026400024480068401C23490860322809D1002032
:1026500008602148006808B9012000E000201E49F8
:1026600008601E480088002813DD1D480068401CD3
:102670001B490860B0F57A7F0BD10020086017482D
:102680000088401E154908800846018815A0FDF7FE
:10269000F1FD1648007801280ED115480068401C4D
:1026A00013490860B0F57A7F06D100200860114810
:1026B0000078401C0F4908700F480068401C0E4904
:1026C0000860B0F57A7F04D10020086001200B4932
:1026D000087010BD40000020B08121423E00002063
:1026E000440000202564200D0A00000002000020A4
:1026F00048000020030000204C0000203C00002087
:1027000010B50121064800F04EF840B105480068B8
:10271000401C044908600121014800F035F810BD53
:1027200000040040580300207FB505460C460121F7
:102730000220FFF709FDADF80850ADF80440002075
:10274000ADF80A00ADF8060001A90E4800F046F801
:10275000012211460B4800F037F81D208DF80000CB
:1027600000208DF8010003208DF8020001208DF873
:1027700003006846FFF71CFB0121024800F007F840
:102780007FBD000000040040CA430282704721B1AF
:10279000028842F00102028004E002884FF6FE73D4
:1027A0001A400280704730B5024600200023002402
:1027B000158A05EA0103958905EA010413B10CB1F4
:1027C000012000E0002030BD1AB183890B438381D2
:1027D00002E083898B4383817047000000220288D6
:1027E0001D4B98420ED01D4B98420BD0B0F1804F3C
:1027F00008D01B4B984205D01A4B984202D01A4B76
:10280000984204D14FF68F731A404B881A43174BE6
:10281000984207D0164B984204D04FF6FF431A4017
:10282000CB881A4302808B8883850B8803850A4BEB
:1028300098420BD0094B984208D00E4B984205D0D5
:102840000D4B984202D00D4B984201D10B7A038672
:102850000123838270470000002C014000340140B6
:102860000004004000080040000C00400010004040
:102870000014004000400140004401400048014075
:102880003EB505460C4601210846FFF75DFC681E73
:1028900080B2ADF80400601E80B2ADF800000020E8
:1028A000ADF80600ADF8020069464FF08040FFF732
:1028B00095FF012211469007FFF786FF0121880747
:1028C000FFF765FF3EBD000010B540F225511D48E1
:1028D00000F08EF810B31B4800F046F9C4B21A4855
:1028E000008800F40040C8B91748008800F4804010
:1028F00060B10A2C03D000201349088020E0124860
:10290000008840F400401049088019E00D2C06D1E1
:102910000D48008840F480400B49088010E00A48C8
:102920000088C0F30D0009490C5407480088401C7A
:102930000549088008460088C72801DD0020088076
:1029400010BD00000038014058000020DC050020C8
:1029500010B540F22551124800F04AF890B11048E5
:1029600000F002F9C1B20F4802780078401C0D4B0C
:1029700018700D488154184600781E2802D11D2079
:102980001946087040F22441054800F031F828B19A
:10299000034800F0E9F800200249087010BD00006B
:1029A00000440040600000209E07002001F40072F7
:1029B000B2F5007F00D100BFCA430280704721B149
:1029C000828942F40052828104E082894DF6FF73CD
:1029D0001A408281704702460020B1F5007F00D185
:1029E00000BF13880B400BB1012000E000207047AE
:1029F00070B50246002400230025002040F66A1628
:102A0000B14200D100BFC1F3421501F01F030126FE
:102A100006FA03F3012D02D19689334006E0022D18
:102A200002D1168A334001E0968A33400C12012607
:102A300006FA04F41688344013B10CB1012000E00A
:102A4000002070BDF0B503460024002600250020BC
:102A500040F66A17B94200D100BF1846C1F34214CC
:102A600001F01F06012707FA06F5012C01D10C30F1
:102A700004E0022C01D1103000E014301AB10768D4
:102A80002F43076002E00768AF430760F0BD000016
:102A90002DE9F04786B005460E460024A24600BF49
:102AA000A1460027B08900B100BF2F462C8A4CF602
:102AB000FF700440F08804432C82AC894EF6F3107A
:102AC0000440B08831890843718908430443AC81CC
:102AD000AC8A4FF6FF400440B0890443AC8201A8A1
:102AE000FFF752FB1F48874202D1DDF810A001E03A
:102AF000DDF80CA0A88900F4004040B10AEBCA0040
:102B000000EB0A1031684900B0FBF1F807E00AEB6E
:102B1000CA0000EB0A1031688900B0FBF1F86420AC
:102B2000B8FBF0F004012009642101FB1089A88999
:102B300000F4004040B1322000EBC900B0FBF1F0DE
:102B400000F00700044308E0322000EB0910642184
:102B5000B0FBF1F000F00F0004432C8106B0BDE89B
:102B6000F08700000038014001468888C0F3080063
:102B70007047C1F308028280704770B504460D4665
:102B800029462046FFF7F5FF00BF80212046FFF7CA
:102B900022FF0028F9D070BD70B506460C4600250E
:102BA00000BF615D3046FFF7E8FF6D1C605D0028E7
:102BB000F7D170BD10B50446FEF79CFE7820FEF7F5
:102BC000F3FEFEF7CDFE0020FEF7EEFEFEF7C8FE98
:102BD0002046FEF7E9FEFEF7C3FEFEF7A9FE10BD94
:102BE00010B50446FEF786FE7820FEF7DDFEFEF700
:102BF000B7FE4020FEF7D8FEFEF7B2FE2046FEF7F5
:102C0000D3FEFEF7ADFEFEF793FE10BD70B5054690
:102C10000C46FEF75BFFAE20FEF72AFFFEF79EFF95
:102C200000B111E02846FEF723FFFEF797FF00B141
:102C30000AE02046FEF71CFFFEF790FF00B103E01C
:102C4000FEF768FF012070BDFEF764FF0020FAE781
:102C5000490050EAC12018BF04204A0D18BF40F0B7
:102C6000010040F2FF72B2EB515F08BF40F002007A
:102C7000012808BF052070472DE9F0414F1E00EBE9
:102C8000C7010446D1E9000115461E4637F0060289
:102C90000DD02A46334601F0FBFA7F1E04EBC70332
:102CA000D3E9002301F03EF837F00602F1D1022FFC
:102CB00025D0042F13D0062F18BFBDE8F0812A4677
:102CC000334601F0E5FAD4E90A2301F02BF82A464D
:102CD000334601F0DDFAD4E9082301F023F82A464F
:102CE000334601F0D5FAD4E9062301F01BF82A4651
:102CF000334601F0CDFAD4E9042301F013F82A4653
:102D0000334601F0C5FAD4E9022301F00BF82A4654
:102D1000334601F0BDFAD4E90023BDE8F04101F0EB
:102D200001B80000002213461046014901F0B6B870
:102D30000000F03F012202F0A8B80022134610461E
:102D4000114601F0ABB830380A2801D20120704793
:102D500000207047014600BF704710B5044620466A
:102D600000F03EF810BD000010B50446084804709D
:102D7000FFF7C6F9074A111F0748FEF72CFC074A60
:102D8000111F0548FEF727FC01200549087010BDFA
:102D9000E9020020080300203333733F10030020B2
:102DA000E802002010B51E210848FDF797FB08A196
:102DB000094800F076FEC82208A1044800F084FA11
:102DC00008B1012010BD0020FCE700009E07002094
:102DD00041540D0A00000000004400404F4B000029
:102DE0002DE9FE4F04460020029054480078052843
:102DF0000CD2DFE800F0030C324A920000F0C6FD6E
:102E0000B0F5FA6F02D901204C49087092E04C48A5
:102E10000168204601F05EFF0FD2204601F0F2FD6E
:102E200006464FF4487100F0B7FD054601F026FE56
:102E30004349086002204149087000F0A7FD41495C
:102E40000968401AB0F5FA6F04D900203E490860BD
:102E50003E49086000F068F96CE039480168204696
:102E600001F038FE03D20320344908700CE02046FC
:102E700001F0C8FD06464FF4487100F08DFD05468F
:102E800001F0FCFD2E49086054E03149204601F074
:102E900055FC05462A480168284601F01BFE38D239
:102EA000012002902948046004202449087000F0A1
:102EB0006DFD24490968451A284601F0F7FD814651
:102EC0000021484601F06AFD1ED01F48006801F04D
:102ED00009FC07461F4A204B01F0DAF905460E4669
:102EE000484601F0FFFB07464FF033321B4B01F021
:102EF000CFF92A463346CDE9000100F013FF8246A0
:102F000000F0DEFE1049086000F040FD0D49086049
:102F100002E00220094908700CE000F037FD094981
:102F20000968401AC82802D901200449087000F035
:102F3000FBF800BF00BF0298BDE8FE8FC80200206A
:102F4000CC020020D8020020D0020020D4020020B1
:102F50000000F0419A9999999999D93F3333E33F09
:102F600070B504460D461E211C48FDF7B7FA1CA19A
:102F70001F4800F096FDC8221EA1184800F0A4F9D1
:102F800078B91E211548FDF7A9FA1DA1184800F0CF
:102F900088FDC8221FA1114800F096F908B9002049
:102FA00070BD1E211C48FDF799FA1E210B48FDF744
:102FB00095FA2B46224619A11748FDF767F91649DD
:102FC0000B4800F06EFD4FF4487212A1034800F068
:102FD0007BF908B10120E3E70020E1E79E0700202C
:102FE00041542B43574D4F44453F0D0A000000000C
:102FF0000044004043574D4F44453A310000000023
:1030000041542B43574D4F44455F4355523D310D7D
:103010000A0000004F4B00006C07002041542B4376
:10302000574A41505F4355523D222573222C222599
:1030300073220D0A00000000F8B504460D4616463E
:103040001E212248FDF74AFA1E212148FDF746FAC3
:1030500020A1214800F025FD4FF4FA7000F0E8F8B7
:103060002B4622461DA11A480096FDF70FF9184974
:10307000194800F016FD4FF448721FA1134800F0E4
:1030800023F908B31E211148FDF728FA1CA11248A4
:1030900000F007FDC8221EA10C4800F015F988B108
:1030A0001E210A48FDF71AFA1AA10B4800F0F9FC94
:1030B000C8221CA1054800F007F908B10120F8BD9D
:1030C0000020FCE70020FAE70020F8E79E07002038
:1030D0006C0700202B2B2B000044004041542B4355
:1030E000495053544152543D222573222C222573BA
:1030F000222C25640D0A0000434F4E4E45435400D8
:1031000041542B4349504D4F44453D310D0A000079
:103110004F4B000041542B43495053454E440D0A38
:10312000000000003E0000002DE9FF5F002127485D
:10313000006801F0CFFD30D200212548006801F081
:10314000C9FD2AD223492248006801F065FB804668
:1031500001F0C8FA06460F461C48006801F0C2FAA2
:1031600080464FF066321C4B01F092F832463B46E7
:10317000CDE9000100F092FECDE902011748006898
:1031800001F0B0FA0446DDE9022301F0C1F98246FC
:1031900000F096FD114908600DE01048006801F04C
:1031A000A1FA06460E4A0F4B01F072F8044600F0F1
:1031B00087FD0A4908600C490848006801F08AFC4C
:1031C00002D2094805490860BDE8FF9FD4020020EB
:1031D000D0020020000020416666E63FCC020020BD
:1031E000AE47E17A14AEEF3F0000A04110B56FF09A
:1031F0000400FFF7D7F90A4800680A49B0FBF1F06C
:10320000094908700846007800EB4001C1EBC01086
:103210004FF6FF7101EAC0000449088010BD0000AC
:103220005C03002000127A005000002052000020B1
:103230000146114A12884A434FF0E0235A610022A6
:103240009A611A46126942F001021A6100BF4FF0FA
:10325000E022106900F001021AB100F48032002A65
:10326000F5D04FF0E022126922F001024FF0E02386
:103270001A6100229A617047520000200146114AEB
:1032800012784A434FF0E0235A6100229A611A46AD
:10329000126942F001021A6100BF4FF0E02210698A
:1032A00000F001021AB100F48032002AF5D04FF08C
:1032B000E022126922F001024FF0E0231A6100229D
:1032C0009A617047500000202DE9F04106460F46F4
:1032D000144625464FF0000802E00A20FFF7A8FF39
:1032E00039463046FDF7E8F818B9681E80B2050087
:1032F000F3D115B90020BDE8F0814FF00108B8F115
:10330000000F01D00120F6E70020F4E700BF054AD6
:10331000128802F04002002AF9D0C2B2014B1B1DF4
:103320001A8070470038014070B500210A480068D3
:1033300001F034FB0ED0084801684FF07E5001F0D8
:103340006BFA0546054901F0F9FB0446044901F012
:10335000F5FB70BD0020FCE7D002002000007A449D
:1033600000007042014800787047000054030020BC
:1033700010B513A1134800F094FB4FF4FA70FFF757
:1033800057FF11A10F4800F08CFB4FF4FA70FFF7C4
:103390004FFFFFF707FD08B9002010BD1E210D48A3
:1033A000FDF79CF80CA1074800F07BFBC8220CA19C
:1033B0000848FFF789FF08B90020EEE70120ECE795
:1033C0002B2B2B000044004041542B5253540D0A28
:1033D000000000009E070020415445300D0A000007
:1033E0004F4B00002DE9F04DC84A002490B09142A7
:1033F00005DA21F00043934201D805D120B110B085
:10340000BDE8F04DFFF796BCB1F5801F1BDA53EA1B
:10341000000209D0002911DA0120FDF78AF810B066
:10342000BDE8F04DFFF789BC0220FDF782F8FFF7F9
:1034300079FC10B081F00041BDE8F08D6FF03504EB
:10344000362201F022FD04EB2152C1F31308B049EA
:10345000A2F2FF33414401F4801282F07F6103EB5A
:10346000225281F04051009241EA08010022A94B0A
:1034700001F04EF8044608F10200A74EC0F3130015
:103480000D467E44032867D2D6E90023204600F08B
:103490005DFE1ED10098002802BFD6E9000110B0E1
:1034A000BDE8F08D00F08EFE07460C469B4A9C4B13
:1034B00000F0EEFE06460D469A4A9B4B38462146E2
:1034C00000F0E6FE10B032462B46BDE8F04D00F0AD
:1034D00029BC4FF05532954B2046294600F0D8FEC6
:1034E0000022934B01F008F806460F4622462B4671
:1034F0001046194600F0CCFE32463B4600F0C8FEAE
:10350000064600980F46F0B100F05CFE80468A4601
:10351000824A834B00F0BCFE32463B4600F0ECFF93
:1035200022462B4600F0F4FF05460C467D4A7E4BB2
:103530004046514600F0ACFE10B02A462346BDE896
:10354000F04D00F0E5BF0B4610B03246204629464C
:10355000BDE8F04D00F0DCBF00224FF08043204674
:1035600000F0E0FB02460B462046294600F096FCA0
:1035700006460F46009800F025FECDE904013246CC
:103580003B461046394600F083FE0C9069480C9A81
:103590004044019009910B46104600F079FE8246A6
:1035A000024665488B46C8F151080B4608F5D728F6
:1035B00003217844FFF760FB52465B4600F068FE4B
:1035C0000A905E480D9152465B4604217844FFF70D
:1035D00053FB099B0C9A00F05BFE844601980D9BFF
:1035E00040EA080860460A9A00F09CFB834608916E
:1035F000B8F1000F4EDD4FF0FF322046294601F0B2
:1036000044FC22462B4600F043FE804600988A4642
:1036100060B3DDE90401414A414B00F039FE0991F4
:1036200000905A4640465146089B00F07BFB3246CC
:103630003B4600F02DFE099B009A00F073FB4246CA
:10364000534600F059FF22462B4600F061FF044626
:103650000D46DDE90401334A334B00F019FE10B08A
:1036600022462B46BDE8F04D00F052BF5A46404678
:10367000089B00F057FB32463B4600F009FE4246ED
:10368000534600F039FF10B022462B46BDE8F04DFE
:1036900000F032BF009840B3DDE904011F4A204B1F
:1036A00000F0F6FD80468A465A4620462946089B89
:1036B00000F02EFF32463B4600F0EAFD42465346FC
:1036C00000F026FF22462B4600F022FF04460D465E
:1036D000DDE90401134A144B00F0DAFD10B0224674
:1036E0002B46BDE8F04D00F013BF0B465A4620466E
:1036F000294600F00DFF32463B4600F0C9FD10B0F0
:1037000022462B46BDE8F04D00F0F6BE0000F07FEB
:10371000645F09000000F03FDA1A0000763C79355A
:10372000EF39EA3D0000E0FE422EE63F5555D53F19
:103730000000E03F86EBF9FF7219000070190000ED
:10374000FFF754FD4FF4E13000F014FA4FF4E1308C
:1037500000F052FAFEF734FA48214FF47A70FFF77E
:103760008FF840F2CF216320FEF7DEFFFEF7ACF8C2
:10377000FEF782FBFEF762F8FEF7BCFD00F013F9DE
:1037800036A0FCF777FDFEF7D0FBFEF753FBFEF704
:1037900051FBFEF74FFB002202211046FEF7E4FB2F
:1037A000012202211020FEF7DFFB02221146202019
:1037B000FEF7DAFB032202213020FEF7D5FB0422BC
:1037C00002214020FEF7D0FB052202215020FEF707
:1037D000CBFB062202216020FEF7C6FB23A0FCF7EC
:1037E00049FDFFF7C5FD18B12BA0FCF743FD02E032
:1037F0002EA0FCF73FFD33A135A0FFF7B1FB18B1B8
:1038000035A0FCF737FD02E039A0FCF733FD4DF69B
:1038100077523EA141A0FFF70FFC18B140A0FCF782
:1038200029FD02E045A0FCF725FD4CA15248FFF719
:10383000B3F911E0FEF7E0F95048008800F40040C9
:1038400050B14F494FA0FCF715FD00204B490880AF
:10385000C8214B48FCF742FEECE7000043505520DE
:10386000537461727420210D0A0000004553505FAB
:10387000494E495420436F6E6E6563742C4A7573CC
:10388000742061206D6F6D656E742C20706C6561A5
:1038900073650D0A0000000045535038323636205B
:1038A000496E6974206F6B0D0A0000004553503853
:1038B00032363620496E6974206572726F720D0A55
:1038C000000000003132333435363332310000002D
:1038D00069706F6E650000004553503832363620EF
:1038E000436F6E6E6563744150206F6B0D0A00006C
:1038F0004553503832363620436F6E6E65637441DF
:1039000050206572726F720D0A0000003130332E44
:1039100034362E3132382E343300000054435000F8
:103920004553503832363620436F6E6E656374539C
:103930006572766572206F6B0D0A00004553503832
:1039400032363620436F6E6E6563745365727665EA
:1039500072206572726F720D0A00000048656C6C0F
:103960006F20536572766F72202C204920616D2084
:103970004D4355210D0A000000440040580000202E
:10398000DC0500202573200D0A00000001480068B6
:10399000704700005803002002468A4201DD0846B5
:1039A00070471046FCE708B54FF4C060FEF738FAE0
:1039B0001C208DF8000001208DF8010002208DF8F8
:1039C000020001208DF803006846FEF7F1F925207A
:1039D0008DF8000001208DF8010003208DF8020011
:1039E00001208DF803006846FEF7E2F926208DF8E5
:1039F000000001208DF8010004208DF80200012054
:103A00008DF803006846FEF7D3F908BD7047000043
:103A100008B5042269460520FDF7ACFD9DF80100BC
:103A20009DF8001040EA0120054908809DF8030038
:103A30009DF8021040EA01200249088008BD0000FC
:103A4000C2020020C4020020002005490860054988
:103A50000860054908600549087005490870704705
:103A60005003002048030020440300204C030020A2
:103A70005403002070B504460D4640212046FEF751
:103A800095FF29462046FFF774F800BF40212046E5
:103A9000FEF7A1FF0028F9D040212046FEF786FF5F
:103AA00070BD70B505460C4604E014F8011B2846AD
:103AB000FFF7E0FF20780028F7D170BD70B504460D
:103AC0000720FEF7CBFB05462CB145F0400107204F
:103AD000FFF79CF804E025F040010720FFF796F877
:103AE00070BD70B504460D4644EA0510C1B2092008
:103AF000FFF78CF870BD70B504460720FEF7AEFBEB
:103B0000054605F0FC0040EA04010720FFF77EF8B7
:103B100070BD10B5044621460620FFF777F810BDAA
:103B2000014A016811607047E402002070B5044644
:103B30000720FEF793FB054605F0E30040EA84000A
:103B4000C1B20720FFF762F870BD2DE9F0410546CC
:103B50000E46144627682168306800F0EFFF804663
:103B6000294600F0EBFD20603946206801F0E4F8BA
:103B7000BDE8F08110B586B00446012144F204008E
:103B8000FEF7F2FA4FF40070ADF8140003208DF840
:103B9000160018208DF8170005A91548FDF788FDB7
:103BA0004FF48060ADF8140004208DF8170005A9CB
:103BB0000F48FDF77DFD01940020ADF80800ADF839
:103BC0000A00ADF80C00ADF810000C20ADF80E00A6
:103BD00001A90848FEF75CFF012240F22551054883
:103BE000FEF730FF01210348FEF7E9FE06B010BDE5
:103BF000000801400038014010B586B0044601219C
:103C00000420FEF7B1FA01214804FEF79DFA0420D2
:103C1000ADF8140018208DF8170003208DF8160059
:103C200005A91848FDF744FD0820ADF8140004204C
:103C30008DF8170005A91348FDF73AFD01940020FF
:103C4000ADF80800ADF80A00ADF80C00ADF81000B2
:103C50000C20ADF80E0001A90B48FEF719FF012159
:103C60000948FEF7ACFE012240F225510648FEF756
:103C7000E9FE012240F224410348FEF7E3FE06B0CC
:103C800010BD0000000801400044004010B5FFF7DF
:103C9000BFFE10BD10B500290AD00878002807D053
:103CA00005487844FDF750F8002801D0002010BDE9
:103CB0000248784410BD00007A130000721300001F
:103CC00021F00042A2F16052B2F5801F01F00043E2
:103CD00028BFD2F17F6C0BD95FEA001C43EAC20215
:103CE00042EB507018BF704728BF20F001007047AA
:103CF000B2F5801FBCBF184670474FEA410C1CF557
:103D0000001F02D2084600F0E0BF70B500F06AFB69
:103D100000000089FFF7F6BF4FF00040A0F58000DB
:103D20007047000010B591EA030F48BF83F00043CD
:103D300000F1F683841A71EB030C05D2121943EBE0
:103D40000C03001B61EB0C01DFF824E14FEA115476
:103D5000A4EB135C1EEA430F18BF9EEA445F73D0C6
:103D600023EA0E03DCF1200E21EA045143F4801310
:103D700032D322FA0CFE10EB0E0023FA0CFE41EBBC
:103D80000E01CCF1200E03FA0EFE10EB0E0051F1E5
:103D90000001B1F5801FCCF1200E32D201EB0451AD
:103DA00012FA0EF2BDE8104058BF7047401C38BFF1
:103DB0005FEA420218BF7047002814BF20F00100DC
:103DC00041F100014FEA410313F5001F38BF70476E
:103DD000A1F1C04100F054BB012A43EB0302ACF156
:103DE000200CDCF11F0E32BF4FF0000E23FA0CF353
:103DF00010EB030041EB0451B4EB115FD0D0A1EB09
:103E0000045101F5801149085FEA300001EB0451CB
:103E10000ED350F1000038BF12FA0EFE08D1BDE8F3
:103E20001040C9E7401C38BF5FEA4202CAD1C3E76D
:103E3000BDE810404FEA410313F5001F38BF70473B
:103E4000A1F1C04100F01CBB9EEA445F08D011EA1A
:103E50005E0FBDE8104004BF01F000410020704734
:103E6000BDE8104070B500F0BDFA00BF64FBBE3E77
:103E70000000E0FF02494FF0000000F0D4BF00BF97
:103E80000000F87F491058BFC1F140415B1058BF96
:103E9000C3F140438B42EFF3008070472DE9C041EE
:103EA00030B4DFF8A0C23CEA111418BF3CEA131486
:103EB00000F0EC8081EA03051CEA111444EAD57491
:103EC00018BF1CEA131500F0C780A4EB05044FF0DF
:103ED000004545EAC12145EAC32341EA505143EA7E
:103EE000525304F17F74994204F500344FEAC02024
:103EF0004FEAC22208BF904200F09C804FEA13654F
:103F00000FF24016765D4FEA134506FB05F7C7F141
:103F1000807706FB07F74FEAD737A7FB036876429F
:103F2000C8F58038A7FB06CE38BFA8F1010807FB0B
:103F300008E64FF0000EA6FB028CE6FB03CEDCF198
:103F4000000CCEF1004E38BFAEF1010EA6FB0C58AE
:103F50004FF000074FF00005E6FB0E87A1FB08C6F7
:103F6000A0FB07CE16EB0E0645F10005E1FB076549
:103F700015F1E04E7EBFA4F580345FEA46066D4140
:103F800016F1800745F100054FEA17274FEA06664C
:103F900047EA0567A6F1DE46B6F1805F4FEA1525D0
:103FA0001FD9384624F0010C05EBC471BCF1FE6F3B
:103FB00001EB0C1102D8F0BCBDE8008124425CBFCB
:103FC00001F5801E9EEAC47F02D4F0BCBDE80081EA
:103FD000244238D4F0BCA1F1C041BDE8004100F05A
:103FE0004FBA4FEAD22242EA43524FEAD323A7FB09
:103FF00002864FEAD02040EA415007FB03661EEAE2
:104000000E0F4FEAD12105FB026658BFA6EB005602
:10401000B6EB00564FEA520E4EEAC37E18EB0E0E78
:1040200056EB530EBDD518EB02085E417F1C55F1CF
:104030000005B6E74FF480154FF000074FF000067B
:104040004FF00008ADE7F0BC4FF0000001F1C041B7
:1040500001F00041BDE8008111EA0C1F0CEA1315C4
:1040600000D00CE013EA0C1F00F025804FF0000098
:10407000F0BC81EA030101F00041BDE80081F0BC21
:10408000BDE8004181EA030100F0FAB9F0BCBDE8E7
:10409000004170B500F0A6F9097EFC3E00F007B8BB
:1040A00081EA03014FF0000001F00041704781EA0E
:1040B000030100F0E5B9F0BCBDE800414FF000009D
:1040C00021497047FFFDFBF9F7F5F4F2F0EEEDEB57
:1040D000E9E8E6E4E3E1E0DEDDDBDAD8D7D5D4D306
:1040E000D1D0CFCDCCCBCAC8C7C6C5C4C2C1C0BF52
:1040F000BEBDBCBBBAB9B8B7B6B5B4B3B2B1B0AF58
:10410000AEADACABAAA9A8A8A7A6A5A4A3A3A2A13B
:10411000A09F9F9E9D9C9C9B9A99999897979695F6
:1041200095949393929191908F8F8E8E8D8C8C8B92
:104130008B8A89898888878786858584848383821A
:10414000828181800000FF070000F87F51EA030CA4
:1041500017D41CF5801F58BFBCF5801F00F10680E6
:10416000994218BF704708BF9042704707D711F5B2
:10417000801F58BF13F5801F19D499427047894298
:1041800070471CF5801F08D5BCF5801FF7D58B4202
:1041900018BF704708BF824270474FF4001C1CEBE9
:1041A000410F38BF1CEB430F01D28B42704770B5F3
:1041B00000F018F9922449004FF000514FF080535D
:1041C000FFF760BE10F0004248BF4042B0FA80F3F3
:1041D00010FA03F10AD0C3F11D0303F580634FEA1F
:1041E000415002EB035202EBD12170474FF0000027
:1041F0007047B0FA80F310FA03F10AD0C3F11D033F
:1042000003F580634FEA41504FEA035202EBD1219C
:1042100070474FF00000704751EA030C17D41CF5AB
:10422000801F58BFBCF5801F00F10680994218BF5F
:10423000704708BF9042704707D711F5801F58BFDD
:1042400013F5801F19D499427047894270471CF5B5
:10425000801F08D5BCF5801FF7D58B4218BF70476B
:1042600008BF824270474FF4001C1CEB410F38BF5F
:104270001CEB430F01D28B42704770B500F0B2F8CF
:10428000922449004FF000514FF08053FFF7FABDE0
:10429000DFF848C170B51CEA111E1EBF1CEA1315D9
:1042A0009EEA0C0F95EA0C0F00F06F8081EA030480
:1042B00023EA4C134EEAD47E21EA4C1141F48011DA
:1042C00043F48013AE44A1FB024CA0FB0365AEF1A6
:1042D0007F7E361955EB0C05A1FB034C4CF1000316
:1042E000A0FB021C16EB0C06654153F100030942CA
:1042F00018BF46F0010613F4007F0BD14FEA0331DB
:104300004FEA0530340341EA155140EA16506FF088
:1043100003020AE04FEAC3214FEAC520F40241EA52
:10432000555140EA56506FF0020202EB2E4201EB6B
:10433000025585EACE710AD05FEA440C18BF24F01A
:10434000004450F1000041F1000120EAD47040F235
:10435000FE7C624500D270BDA84214BF4FF080447D
:104360004FF04044002E08BF0024BEF1806FA8BF6C
:10437000A1F1C041BDE8704080F282804FF00000A2
:1043800001F1C04101F0004170479EEA0C0F0CEAB8
:10439000131518BF95EA0C0F06D04FF0000081EA04
:1043A000030E0EF0004170BD00F01CF88900013EC4
:1043B00000F007B800F009B84FEA430C5FEA5C5C14
:1043C00008D081EA030100F05BB84FEA410C5FEAD4
:1043D0005C5CF6D14FF00000014970470000FF0718
:1043E0000000F87F0EF1020E2EF0030E5EF8046B53
:1043F000364205D4012A43EB030515F5001F12D8F8
:10440000012841EB010C1CF5001F0CD80ED14FEA1E
:10441000D17C15F5001F0CEB4C0C0CF1020C08BF05
:104420004CEBD37C04E04FF0080C01E04FEAD37C66
:104430000CEB4C0526FA05F606F00706B6F1040C5F
:1044400006D20EEB860CBDE870404CF0010C6047C4
:10445000DFE80CF0090B02024FF000414FF00000C2
:10446000A1F5002170BD19461046012851EB010449
:1044700018BFD4F5001484BF002001F0004170BDC6
:104480000808A0F500114FEA3101704753EA010C0A
:1044900017D41CF5801F58BFBCF5801F00F10680A3
:1044A0008B4218BF704708BF8242704707D713F589
:1044B000801F58BF11F5801F19D48B4270479B4253
:1044C00070471CF5801F08D5BCF5801FF7D59942B1
:1044D00018BF704708BF904270474FF4001C1CEB98
:1044E000430F38BF1CEB410F01D2994270470FB404
:1044F0000CBC03BCFFF7C1BE91EA030F10B581F0FD
:1045000000413FF517AC83F0004300F009B800000C
:1045100010B591EA030F48BF83F000433FF50AACA2
:10452000841A71EB030C07D212198CF0004C43EB88
:104530000C03001B61EB0C01DFF8A4E14FEA1154FE
:10454000A4EB135C1EEA430F18BF9EEA445F00F021
:10455000B08023EA6E03524221EA0451C3EB6E039A
:1045600038BF5B1EDCF1200E25D322FA0CFE10EBC7
:104570000E0043FA0CFE41EB0E01CCF1200E03FAC3
:104580000EFE10EB0E0051F10001CCF1200E29D4EB
:1045900012FA0EF201EB0451BDE8104058BF70470B
:1045A000401C1CBFB2F1004F704700280CBF491CD3
:1045B00020F00100704712EB020E43EB030218BF1C
:1045C0004FF0010E4EEA4202ACF1200CDCF11E0E5F
:1045D00054D943FA0CFE10EB0E0051F1FF31CCF12F
:1045E0001E0ED5D50EF1010E12FA0EFE404141EB22
:1045F000010101EB445C5FEA5C5C10D910EBDE70FA
:1046000001EB045138BFBEF1004FBDE8104018BFA8
:10461000704700280CBF491C20F00100704730D2C1
:104620004FEAD42C11F5001124F400641BD0B1FA28
:1046300081F20B3AA41AA41ED2F12003914030FA61
:1046400003F31943904001EBCC71002C01EB0451B2
:10465000BDE81040A8BF704701F1C0414FF0000015
:1046600001F000417047B0FA80F310FA03F100D175
:1046700010BDE41A173C4805C90AE4E701EB0451F0
:1046800010BD491001EB0451BDE810404FEA300065
:1046900002E04FF0000170474A0008BF0042F8D026
:1046A000B2F5001F28BF704701F000414FF0000035
:1046B00070479EEA445F07D011EA5E0FBDE81040E4
:1046C00004BF002100207047BDE8104070B5FFF71F
:1046D00089FE00BF40DFF63E83F000411046704780
:1046E0000000E0FF43004FEAD30C4FEA3C0C43408C
:1046F0001FBF40070CF1605113F0FE4F70471CF0D4
:10470000006F03D100200CF0004170470CF0004313
:1047100043EA507010B540EACC0000F090FA00BFB8
:10472000000000924FEA0001FFF7AABE4FF00041DF
:104730004FF00000A1F500217047000090EA010F42
:1047400048BF81F0004100F1FE82421A3CBF801A4E
:1047500089184FEAD0524FF07F4C1CEA410FA2EB70
:10476000D15318BF9CEA026F00F03B804FF0004C21
:104770004CEA00204CEA012121FA03FC10EB0C0C5E
:104780001ED202F1FF325FEA1C2040EBC25038BF5C
:1047900070471CF07F0F4FEA400C18BFBCF17F4FF1
:1047A00038BF7047C3F12003994008BF20F00100D3
:1047B000BCF17F4F38BF7047A0F1C04000F085BA10
:1047C0004FEA3C00000A40EBC25028BF1CF0FF0F2C
:1047D0004FEA400CE6D018BFBCF17F4F38BF70479E
:1047E000EAE79CEA026F05D010EA5C0F08BF00F010
:1047F0000040704710B500F022FA00BF64FBBE3ED7
:10480000401058BFC0F14040491058BFC1F140416D
:104810008142EFF3008070474FF47F0C1CEAD01206
:104820001EBF1CEAD11392EA0C0F93EA0C0F00F0A2
:10483000858090EA010F48BF42F4807240F4000C7A
:1048400041F400002CF07F4120F07F4000B5814210
:10485000A2EB03020FF2081CACEB504EC0F10000BB
:104860009EF800E04FEA4E0E00FB0EFC38BF4900F8
:104870004FEA2C1C02F5FA020CFB0EF34FEACE1E97
:104880004FEA112C4FEAC1210EEB635E42EB22424C
:104890000EFB0CFC4FEA1C5300FB03114FEA112CDA
:1048A0004FEA01310EFB0CFC4FEADC4C00FB0C1113
:1048B000C14228BF09184CEB03335DF804EB10EB41
:1048C000410143EBC250B2F57C0F38BF704729D588
:1048D00012F0F00F1CBF00F1C04000F00040704724
:1048E000008182838485868788898B8C8D8E8F91C9
:1048F0009293959697999A9C9D9FA0A2A3A5A7A8ED
:10490000AAACAEB0B2B3B5B7B9BCBEC0C2C5C7C918
:10491000CCCED1D4D7D9DCDFE2E6E9ECF0F3F7FA7C
:10492000FE0000004FEA400C0CF1807CBCF17E4F91
:1049300028BF7047B0F1C04000F0C7B990EA010F3E
:104940000CEAD11348BF42F48072624538BF634518
:1049500007D213F47F0F16D080EA010000F0004068
:10496000704710B500F06BF9097EFC3E00F005B809
:1049700080EA010000F00040704780EA010000F08A
:10498000004000F0A2B912F47F0F04BF0248704744
:1049900080EA010000F099B90000C07F50EA010CE4
:1049A00000F113801CF5000F58BFBCF5000F01D4B7
:1049B0008842704707D710F5000F58BF11F5000F58
:1049C00015D488427047894270471CF5000F04D502
:1049D000BCF5000FF7D5814270474FF0807C1CEB8F
:1049E000400F38BF1CEB410F01D28142704710B518
:1049F00000F025F9922449004FF000504FF080510B
:104A0000FFF7FEBE41000B0ED3F19E0208D950F411
:104A100000034FEA032323FA02F048BF40427047E5
:104A200010B500F00CF900BF4992248000207047B7
:104A30006FF0004282EA200070470000C10DD1F102
:104A40009E0206DB4FEA002343F0004323FA02F004
:104A50007047004207D54FEA4001B1F1FE4F02D244
:104A60004FF00000704710B500F0E9F8499224803B
:104A7000002070476FEA20007047000010F00041EE
:104A800048BF4042B0FA80F310FA03F2C3F19D032D
:104A90000BD051EAC35101EB1220530638BF7047C7
:104AA00000F1010008BF20F001007047B0FA80F368
:104AB00010FA03F2C3F19D030AD0D90501EB1220CD
:104AC000530638BF704700F1010008BF20F0010015
:104AD0007047000050EA010C00F113801CF5000F34
:104AE00058BFBCF5000F01D48842704707D710F5B6
:104AF000000F58BF11F5000F15D488427047894246
:104B000070471CF5000F04D5BCF5000FF7D58142A6
:104B100070474FF0807C1CEB400F38BF1CEB410FFF
:104B200001D28142704710B500F089F89224490003
:104B30004FF000504FF08051FFF762BE4FF47F0CF2
:104B40001CEAD0121EBF1CEAD11392EA0C0F93EAA2
:104B50000C0F00F0478090EA010F48BF42F48072CA
:104B60004FF0004C4CEA00204CEA012102EB03021A
:104B7000A0FB0113A2F50002002918BF43F00103B6
:104B80005B0028BF4FEA330342EB22425FEA132C5B
:104B90004CEBC2502EBFBCEB436FB2F57C0F70479D
:104BA0004FEA036CBCF1004F08BF20F00100B2F5E2
:104BB0007C0F38BF70470BD582F0FF0212F5803FA3
:104BC000C8BF704700F1C040D8BF00F00040704738
:104BD00000F5000C5FEA4C0C48BF7047B0F1C040D4
:104BE00000F073B890EA010F0CEAD11348BF42F409
:104BF0008072624538BF634504D280EA010000F04C
:104C00000040704710B500F01AF800BF8900013E5F
:104C100000F007B800F009B85FEA410C5FEA1C6CCD
:104C200008D080EA010000F050B85FEA400C5FEA6B
:104C30001C6CF6D14FF00040A0F5800070470EF1DB
:104C4000020E2EF0030E5EF8044B244204D44FEA09
:104C50004102B2F17F4F11D84FEA4003B3F17F4FC9
:104C60000CD80ED14FEAD07CB2F17F4F0CEB4C0C3C
:104C70000CF1020C08BF4CEBD17C04E04FF0080CA7
:104C800001E04FEAD17C0CEB4C0324FA03F404F06E
:104C90000704B4F1040C06D20EEB840CBDE81040FE
:104CA0004CF0010C6047DFE80CF0070802024FF0FF
:104CB0000040A0F5800010BD0846420018BFD2F1A8
:104CC000807288BF00F0004010BDFF2141EAD05043
:104CD000C005704751EA000C00F113801CF5000F6D
:104CE00058BFBCF5000F01D48142704707D711F5BA
:104CF000000F58BF10F5000F15D48142704789424C
:104D000070471CF5000F04D5BCF5000FF7D588429D
:104D100070474FF0807C1CEB410F38BF1CEB400FFD
:104D200001D28842704780EA010081EA000180EAEE
:104D30000100FFF7F8BE000090EA010F48BF81F0C4
:104D400000413FF502AD421A04D882F00042A0EBC8
:104D5000020011444FEAD0524FF07F4C1CEA410F41
:104D6000A2EBD15318BF9CEA026F4AD04FF0004C1F
:104D70004CEA00204CEA012121FA03FCB0EB0C0CB8
:104D80000FD412F0FE0F36D05FEA4C001DD5001292
:104D900040EBC25038BF70471CF03F0F18BF704740
:104DA0000BE0A2F101025FEA1C2040EBC25038BFC9
:104DB00070471CF07F0F18BF7047C3F12003994064
:104DC00014BF401E20F00100704780084FEA1223F4
:104DD00008BF7047B0FA80FCA2EB0C02CCF1280CA3
:104DE00060FA0CF093EA122F04BF00EBC250704738
:104DF0004FEAC3707047130A5FEADC1008BF7047C0
:104E0000F6E79CEA026F04D010EA5C0F08BF0020AE
:104E1000704710B5FFF713FF40DFF63E81F000400A
:104E20007047FBF7BCBC0CF00F03092B08BF082030
:104E300000F059800A2B0BD0082B18BF704708BF11
:104E40001CF0400F0AD04FF000004FF000017047F7
:104E50001CF0400F18BF4FF0004070471CF0100FBF
:104E600008D020F0704300F07F4242EAD3014FEABD
:104E70004370704700F0604021F07F4242EA000238
:104E800001F07F4040EA727070474FF0FF0C4CF425
:104E9000E06C1CEA11531CBF9CEA030C9445C2BF92
:104EA000DA4201EB02517047002B0DD0BCF1000F2C
:104EB0000FD0002A01F00041A4BF41F0E04141F0D1
:104EC0007F614FF00000704701F000414FF000009B
:104ED000704750EA01334FF09B0C18BF4CF0806CC8
:104EE0007EF4C8AF70471CF4801F11D01CF4E02F73
:104EF00003D06FEACC31490070474FF04050EFF3D8
:104F0000008222F0704242EA000282F30088704779
:104F10004FF000007047040000080000000000008F
:104F2000000200010000100004FA97999999D93FF6
:104F3000AF788E1DC571CC3F9FC678D0099AC33F0C
:104F4000935555555555E53F599322942449D23FE1
:104F5000DE03CB966446C73F44523EDF12F1C23FA8
:104F6000000000000000000002400000000000A05F
:104F70000000000005400000000000C80000000024
:104F80000C4000000000409C0000000019400000A0
:104F90000020BCBE0000000034400000BFC91B8ED2
:104FA00000000004B5400000504BCFD06607E2CFB0
:104FB000010000006C4100003E8251AADFEEA734E0
:104FC00001000000D9420000DCB5A0E23A301F9792
:104FD000FFFFFFFFB4450000FD25A0C8E9A3C14FB6
:104FE000FFFFFFFFFF3F0000000000800000000007
:104FF000FF3F000000000080000000003850000863
:1050000000000020840300006C010008D05100085B
:10501000840300209C0A0000C80100081C00000056
:1050200043000000F8FFFFFF0C0000000E0000002E
:105030000F0000002E0000000114000D140AD7A379
:105040003CBC74933C83C00A3F0C13295C0F1801CD
:10505000161CF09088012AFE053390F02B0F0801F2
:105060002AFF1034888F602A04014744A414140CCA
:10507000041E0101414181011C4739010121300E0B
:105080002010F82C262424A4342C2020C0100980C1
:1050900080BF4040201C0326204040BF80300FA02E
:1050A000A0A8E8BEA8A8A8A03CE024E828300E24C8
:1050B000272425FE24249040373C43F8180B223245
:1050C0002AA6A262211109814E0112000E1242226B
:1050D000130B42827E02020A122346162030AC6372
:1050E00030000A1188C8A8998E88A8C888200A228A
:1050F000672212128040300F05123F40407128098C
:105100000202C2020202FE82010212025D4040401F
:105110007F0429010111280C080888C8380C0B08E5
:1051200008E8080109105F12011CFF4041012A7FB5
:10513000050912401589EA18881D0404FC040409B5
:10514000119F1940000B1201864020180740804033
:105150003F171010F01F10F008091040E0584740AA
:105160005060C0C02622150816211BFE4201021302
:10517000FE358060F8070712FF40201008041A016E
:105180001B112D0402013FFE0B11407880000E68B8
:1051900010FF9020988888E98E8888A8981A640162
:1051A0003A63012A62013A61013A60013A5F012AD9
:1051B0005E012A5D01011A7BA24AF168090102031E
:1051C00004060708090C691005000204060800001F
:0400000508000231BC
:00000001FF
